{
  "address": "0xDf990Ec399aBB0eC24f3294e9C23d1F224C1128c",
  "abi": [
    {
      "inputs": [
        {
          "internalType": "uint256",
          "name": "_time",
          "type": "uint256"
        }
      ],
      "name": "AfterHours",
      "type": "error"
    },
    {
      "inputs": [
        {
          "internalType": "uint256",
          "name": "_time",
          "type": "uint256"
        }
      ],
      "name": "doNotDisturb",
      "outputs": [
        {
          "internalType": "string",
          "name": "_message",
          "type": "string"
        }
      ],
      "stateMutability": "pure",
      "type": "function"
    },
    {
      "inputs": [
        {
          "internalType": "uint256",
          "name": "_number",
          "type": "uint256"
        }
      ],
      "name": "fizzBuzz",
      "outputs": [
        {
          "internalType": "string",
          "name": "_result",
          "type": "string"
        }
      ],
      "stateMutability": "pure",
      "type": "function"
    }
  ],
  "transactionHash": "0x7327fd6ee46fab63f3d570931f4c9ca093406dbb9746ae35ca211653fe126aff",
  "args": [],
  "numDeployments": 1,
  "solcInputHash": "b6e329ea511cf3f759a69ea7ad58a10a",
  "bytecode": "0x608060405234801561001057600080fd5b5061034a806100206000396000f3fe608060405234801561001057600080fd5b50600436106100365760003560e01c8063440c93e21461003b578063e655b7bb14610064575b600080fd5b61004e610049366004610244565b610077565b60405161005b9190610281565b60405180910390f35b61004e610072366004610244565b6100fc565b60408051808201909152600581526414dc1b185d60da1b602082015261009e6003836102b4565b6000036100c257506040805180820190915260048152632334bd3d60e11b60208201525b6100cd6005836102b4565b6000036100f757806040516020016100e591906102d6565b60405160208183030381529060405290505b919050565b6060610960821061010f5761010f6102fe565b610320821080610120575061089882115b156101465760405163525fb80f60e11b8152600481018390526024015b60405180910390fd5b6104b0821015801561015a57506104eb8211155b156101925760405162461bcd60e51b8152602060048201526008602482015267082e840d8eadcc6d60c31b604482015260640161013d565b61032082101580156101a657506104af8211155b156101cc57506040805180820190915260088152674d6f726e696e672160c01b60208201525b61051482101580156101e057506107078211155b15610208575060408051808201909152600a81526941667465726e6f6f6e2160b01b60208201525b610708821015801561021c57506108988211155b156100f75750506040805180820190915260078152664576656e696e6760c81b602082015290565b60006020828403121561025657600080fd5b5035919050565b60005b83811015610278578181015183820152602001610260565b50506000910152565b60208152600082518060208401526102a081604085016020870161025d565b601f01601f19169190910160400192915050565b6000826102d157634e487b7160e01b600052601260045260246000fd5b500690565b600082516102e881846020870161025d565b63213abd3d60e11b920191825250600401919050565b634e487b7160e01b600052600160045260246000fdfea2646970667358221220a9033332e7a7bf5f19f4b7d878a4b0f6abf5a81d6d4ad1925eb1c2ab2d8016b564736f6c63430008140033",
  "devdoc": {
    "kind": "dev",
    "methods": {},
    "version": 1
  },
  "userdoc": {
    "kind": "user",
    "methods": {},
    "version": 1
  },
  "storageLayout": {
    "storage": [],
    "types": null
  }
}