{
  "address": "0x88842a52083e84c1708F87750f496E9ee6C211a9",
  "abi": [
    {
      "inputs": [
        {
          "internalType": "uint256",
          "name": "_idNumber",
          "type": "uint256"
        },
        {
          "internalType": "uint256",
          "name": "_managerId",
          "type": "uint256"
        },
        {
          "internalType": "uint256",
          "name": "_annualSalary",
          "type": "uint256"
        }
      ],
      "stateMutability": "nonpayable",
      "type": "constructor"
    },
    {
      "inputs": [
        {
          "internalType": "uint256",
          "name": "_idNumber",
          "type": "uint256"
        }
      ],
      "name": "addReport",
      "outputs": [],
      "stateMutability": "nonpayable",
      "type": "function"
    },
    {
      "inputs": [],
      "name": "annualSalary",
      "outputs": [
        {
          "internalType": "uint256",
          "name": "",
          "type": "uint256"
        }
      ],
      "stateMutability": "view",
      "type": "function"
    },
    {
      "inputs": [
        {
          "internalType": "uint256",
          "name": "",
          "type": "uint256"
        }
      ],
      "name": "employeeIds",
      "outputs": [
        {
          "internalType": "uint256",
          "name": "",
          "type": "uint256"
        }
      ],
      "stateMutability": "view",
      "type": "function"
    },
    {
      "inputs": [],
      "name": "getAnnualCost",
      "outputs": [
        {
          "internalType": "uint256",
          "name": "",
          "type": "uint256"
        }
      ],
      "stateMutability": "view",
      "type": "function"
    },
    {
      "inputs": [],
      "name": "idNumber",
      "outputs": [
        {
          "internalType": "uint256",
          "name": "",
          "type": "uint256"
        }
      ],
      "stateMutability": "view",
      "type": "function"
    },
    {
      "inputs": [],
      "name": "managerId",
      "outputs": [
        {
          "internalType": "uint256",
          "name": "",
          "type": "uint256"
        }
      ],
      "stateMutability": "view",
      "type": "function"
    },
    {
      "inputs": [],
      "name": "resetReports",
      "outputs": [],
      "stateMutability": "nonpayable",
      "type": "function"
    }
  ],
  "transactionHash": "0x850eecdbb8d03ed07367ee831c5f951ecaafa179afc1a12efac942effc3ce111",
  "args": [
    54321,
    11111,
    200000
  ],
  "numDeployments": 1,
  "solcInputHash": "2336cc388017c663613de2654a82727f",
  "bytecode": "0x608060405234801561001057600080fd5b5060405161024c38038061024c83398101604081905261002f91610040565b60009290925560015560025561006e565b60008060006060848603121561005557600080fd5b8351925060208401519150604084015190509250925092565b6101cf8061007d6000396000f3fe608060405234801561001057600080fd5b506004361061007d5760003560e01c80637e3975361161005b5780637e397536146100ae57806386e73dc3146100c1578063a596d3c814610106578063f5895a0a1461010e57600080fd5b80633f83ea3b1461008257806350dca6ab1461009d5780635cdee0c0146100a6575b600080fd5b61008b60005481565b60405190815260200160405180910390f35b61008b60025481565b60025461008b565b61008b6100bc366004610180565b610117565b6101046100cf366004610180565b600380546001810182556000919091527fc2575a0e9e593c00f959f8c92f12db2869c3395a3b0502d05e2516446f71f85b0155565b005b610104610138565b61008b60015481565b6003818154811061012757600080fd5b600091825260209091200154905081565b61014460036000610146565b565b50805460008255906000526020600020908101906101649190610167565b50565b5b8082111561017c5760008155600101610168565b5090565b60006020828403121561019257600080fd5b503591905056fea26469706673582212206c8f41980091482d9b9f90990504dce9fc0436eedeab87484e2360c9aa37136d64736f6c63430008140033",
  "devdoc": {
    "kind": "dev",
    "methods": {},
    "version": 1
  },
  "userdoc": {
    "kind": "user",
    "methods": {},
    "version": 1
  },
  "storageLayout": {
    "storage": [
      {
        "astId": 24,
        "contract": "contracts/Inheritance/InheritanceSubmission.sol:EngineeringManager",
        "label": "idNumber",
        "offset": 0,
        "slot": "0",
        "type": "t_uint256"
      },
      {
        "astId": 26,
        "contract": "contracts/Inheritance/InheritanceSubmission.sol:EngineeringManager",
        "label": "managerId",
        "offset": 0,
        "slot": "1",
        "type": "t_uint256"
      },
      {
        "astId": 53,
        "contract": "contracts/Inheritance/InheritanceSubmission.sol:EngineeringManager",
        "label": "annualSalary",
        "offset": 0,
        "slot": "2",
        "type": "t_uint256"
      },
      {
        "astId": 118,
        "contract": "contracts/Inheritance/InheritanceSubmission.sol:EngineeringManager",
        "label": "employeeIds",
        "offset": 0,
        "slot": "3",
        "type": "t_array(t_uint256)dyn_storage"
      }
    ],
    "types": {
      "t_array(t_uint256)dyn_storage": {
        "base": "t_uint256",
        "encoding": "dynamic_array",
        "label": "uint256[]",
        "numberOfBytes": "32"
      },
      "t_uint256": {
        "encoding": "inplace",
        "label": "uint256",
        "numberOfBytes": "32"
      }
    }
  }
}