{
  "address": "0x8f7176E4282bb0e182d63a4E0084e5Bd515c502a",
  "abi": [
    {
      "inputs": [
        {
          "internalType": "uint256",
          "name": "_index",
          "type": "uint256"
        }
      ],
      "name": "BadCarIndex",
      "type": "error"
    },
    {
      "inputs": [
        {
          "internalType": "string",
          "name": "_make",
          "type": "string"
        },
        {
          "internalType": "string",
          "name": "_model",
          "type": "string"
        },
        {
          "internalType": "string",
          "name": "_color",
          "type": "string"
        },
        {
          "internalType": "uint256",
          "name": "_numberOfDoors",
          "type": "uint256"
        }
      ],
      "name": "addCar",
      "outputs": [],
      "stateMutability": "nonpayable",
      "type": "function"
    },
    {
      "inputs": [
        {
          "internalType": "address",
          "name": "",
          "type": "address"
        },
        {
          "internalType": "uint256",
          "name": "",
          "type": "uint256"
        }
      ],
      "name": "garage",
      "outputs": [
        {
          "internalType": "string",
          "name": "make",
          "type": "string"
        },
        {
          "internalType": "string",
          "name": "model",
          "type": "string"
        },
        {
          "internalType": "string",
          "name": "color",
          "type": "string"
        },
        {
          "internalType": "uint256",
          "name": "numberOfDoors",
          "type": "uint256"
        }
      ],
      "stateMutability": "view",
      "type": "function"
    },
    {
      "inputs": [],
      "name": "getMyCars",
      "outputs": [
        {
          "components": [
            {
              "internalType": "string",
              "name": "make",
              "type": "string"
            },
            {
              "internalType": "string",
              "name": "model",
              "type": "string"
            },
            {
              "internalType": "string",
              "name": "color",
              "type": "string"
            },
            {
              "internalType": "uint256",
              "name": "numberOfDoors",
              "type": "uint256"
            }
          ],
          "internalType": "struct GarageManager.Car[]",
          "name": "",
          "type": "tuple[]"
        }
      ],
      "stateMutability": "view",
      "type": "function"
    },
    {
      "inputs": [
        {
          "internalType": "address",
          "name": "_user",
          "type": "address"
        }
      ],
      "name": "getUserCars",
      "outputs": [
        {
          "components": [
            {
              "internalType": "string",
              "name": "make",
              "type": "string"
            },
            {
              "internalType": "string",
              "name": "model",
              "type": "string"
            },
            {
              "internalType": "string",
              "name": "color",
              "type": "string"
            },
            {
              "internalType": "uint256",
              "name": "numberOfDoors",
              "type": "uint256"
            }
          ],
          "internalType": "struct GarageManager.Car[]",
          "name": "",
          "type": "tuple[]"
        }
      ],
      "stateMutability": "view",
      "type": "function"
    },
    {
      "inputs": [],
      "name": "resetMyGarage",
      "outputs": [],
      "stateMutability": "nonpayable",
      "type": "function"
    },
    {
      "inputs": [
        {
          "internalType": "uint256",
          "name": "_index",
          "type": "uint256"
        },
        {
          "internalType": "string",
          "name": "_make",
          "type": "string"
        },
        {
          "internalType": "string",
          "name": "_model",
          "type": "string"
        },
        {
          "internalType": "string",
          "name": "_color",
          "type": "string"
        },
        {
          "internalType": "uint256",
          "name": "_numberOfDoors",
          "type": "uint256"
        }
      ],
      "name": "updateCar",
      "outputs": [],
      "stateMutability": "nonpayable",
      "type": "function"
    }
  ],
  "transactionHash": "0xe6db0584603c729537c312beb7cb8733aef0d669ce48a1a4a6bf50f122bf04dd",
  "args": [],
  "numDeployments": 3,
  "solcInputHash": "2ce792e459576a276956115b7c67bc33",
  "bytecode": "0x608060405234801561001057600080fd5b50610d69806100206000396000f3fe608060405234801561001057600080fd5b50600436106100625760003560e01c80632698286c14610067578063341fa05d146100905780633ecd55a9146100985780634cd1ed3d146100bb5780636dcb7896146100d0578063d2d50bd8146100d8575b600080fd5b61007a61007536600461089e565b6100eb565b6040516100879190610906565b60405180910390f35b61007a61031e565b6100ab6100a63660046109b2565b61032e565b60405161008794939291906109dc565b6100ce6100c9366004610a70565b610513565b005b6100ce610688565b6100ce6100e6366004610b1b565b6106a2565b6001600160a01b038116600090815260208181526040808320805482518185028101850190935280835260609492939192909184015b82821015610313578382906000526020600020906004020160405180608001604052908160008201805461015490610bbe565b80601f016020809104026020016040519081016040528092919081815260200182805461018090610bbe565b80156101cd5780601f106101a2576101008083540402835291602001916101cd565b820191906000526020600020905b8154815290600101906020018083116101b057829003601f168201915b505050505081526020016001820180546101e690610bbe565b80601f016020809104026020016040519081016040528092919081815260200182805461021290610bbe565b801561025f5780601f106102345761010080835404028352916020019161025f565b820191906000526020600020905b81548152906001019060200180831161024257829003601f168201915b5050505050815260200160028201805461027890610bbe565b80601f01602080910402602001604051908101604052809291908181526020018280546102a490610bbe565b80156102f15780601f106102c6576101008083540402835291602001916102f1565b820191906000526020600020905b8154815290600101906020018083116102d457829003601f168201915b5050505050815260200160038201548152505081526020019060010190610121565b505050509050919050565b6060610329336100eb565b905090565b6000602052816000526040600020818154811061034a57600080fd5b90600052602060002090600402016000915091505080600001805461036e90610bbe565b80601f016020809104026020016040519081016040528092919081815260200182805461039a90610bbe565b80156103e75780601f106103bc576101008083540402835291602001916103e7565b820191906000526020600020905b8154815290600101906020018083116103ca57829003601f168201915b5050505050908060010180546103fc90610bbe565b80601f016020809104026020016040519081016040528092919081815260200182805461042890610bbe565b80156104755780601f1061044a57610100808354040283529160200191610475565b820191906000526020600020905b81548152906001019060200180831161045857829003601f168201915b50505050509080600201805461048a90610bbe565b80601f01602080910402602001604051908101604052809291908181526020018280546104b690610bbe565b80156105035780601f106104d857610100808354040283529160200191610503565b820191906000526020600020905b8154815290600101906020018083116104e657829003601f168201915b5050505050908060030154905084565b3360009081526020819052604090205488106105495760405163206480e760e11b81526004810189905260240160405180910390fd5b604051806080016040528088888080601f016020809104026020016040519081016040528093929190818152602001838380828437600092019190915250505090825250604080516020601f890181900481028201810190925287815291810191908890889081908401838280828437600092019190915250505090825250604080516020601f87018190048102820181019092528581529181019190869086908190840183828082843760009201829052509385525050506020918201849052338152908190526040902080548a90811061062757610627610bf8565b6000918252602090912082516004909202019081906106469082610c73565b506020820151600182019061065b9082610c73565b50604082015160028201906106709082610c73565b50606082015181600301559050505050505050505050565b3360009081526020819052604081206106a0916107d0565b565b3360009081526020818152604091829020825160a0601f8b0184900490930281018301909352608083018981529092918291908b908b9081908501838280828437600092019190915250505090825250604080516020601f8a0181900481028201810190925288815291810191908990899081908401838280828437600092019190915250505090825250604080516020601f8801819004810282018101909252868152918101919087908790819084018382808284376000920182905250938552505050602091820185905283546001810185559381522081519192600402019081906107909082610c73565b50602082015160018201906107a59082610c73565b50604082015160028201906107ba9082610c73565b5060608201518160030155505050505050505050565b50805460008255600402906000526020600020908101906107f191906107f4565b50565b808211156108345760006108088282610838565b610816600183016000610838565b610824600283016000610838565b50600060038201556004016107f4565b5090565b50805461084490610bbe565b6000825580601f10610854575050565b601f0160209004906000526020600020908101906107f191905b80821115610834576000815560010161086e565b80356001600160a01b038116811461089957600080fd5b919050565b6000602082840312156108b057600080fd5b6108b982610882565b9392505050565b6000815180845260005b818110156108e6576020818501810151868301820152016108ca565b506000602082860101526020601f19601f83011685010191505092915050565b60006020808301818452808551808352604092508286019150828160051b87010184880160005b838110156109a457603f19898403018552815160808151818652610953828701826108c0565b915050888201518582038a87015261096b82826108c0565b915050878201518582038987015261098382826108c0565b6060938401519690930195909552509487019492509086019060010161092d565b509098975050505050505050565b600080604083850312156109c557600080fd5b6109ce83610882565b946020939093013593505050565b6080815260006109ef60808301876108c0565b8281036020840152610a0181876108c0565b90508281036040840152610a1581866108c0565b91505082606083015295945050505050565b60008083601f840112610a3957600080fd5b50813567ffffffffffffffff811115610a5157600080fd5b602083019150836020828501011115610a6957600080fd5b9250929050565b60008060008060008060008060a0898b031215610a8c57600080fd5b88359750602089013567ffffffffffffffff80821115610aab57600080fd5b610ab78c838d01610a27565b909950975060408b0135915080821115610ad057600080fd5b610adc8c838d01610a27565b909750955060608b0135915080821115610af557600080fd5b50610b028b828c01610a27565b999c989b50969995989497949560800135949350505050565b60008060008060008060006080888a031215610b3657600080fd5b873567ffffffffffffffff80821115610b4e57600080fd5b610b5a8b838c01610a27565b909950975060208a0135915080821115610b7357600080fd5b610b7f8b838c01610a27565b909750955060408a0135915080821115610b9857600080fd5b50610ba58a828b01610a27565b989b979a50959894979596606090950135949350505050565b600181811c90821680610bd257607f821691505b602082108103610bf257634e487b7160e01b600052602260045260246000fd5b50919050565b634e487b7160e01b600052603260045260246000fd5b634e487b7160e01b600052604160045260246000fd5b601f821115610c6e57600081815260208120601f850160051c81016020861015610c4b5750805b601f850160051c820191505b81811015610c6a57828155600101610c57565b5050505b505050565b815167ffffffffffffffff811115610c8d57610c8d610c0e565b610ca181610c9b8454610bbe565b84610c24565b602080601f831160018114610cd65760008415610cbe5750858301515b600019600386901b1c1916600185901b178555610c6a565b600085815260208120601f198616915b82811015610d0557888601518255948401946001909101908401610ce6565b5085821015610d235787850151600019600388901b60f8161c191681555b5050505050600190811b0190555056fea2646970667358221220b1758a35229e9417734e5b0fbc17405dce1dbd9d95c9273bc775b749395108b864736f6c63430008140033",
  "devdoc": {
    "kind": "dev",
    "methods": {},
    "version": 1
  },
  "userdoc": {
    "kind": "user",
    "methods": {},
    "version": 1
  },
  "storageLayout": {
    "storage": [
      {
        "astId": 16,
        "contract": "contracts/Structs/GarageManager.sol:GarageManager",
        "label": "garage",
        "offset": 0,
        "slot": "0",
        "type": "t_mapping(t_address,t_array(t_struct(Car)10_storage)dyn_storage)"
      }
    ],
    "types": {
      "t_address": {
        "encoding": "inplace",
        "label": "address",
        "numberOfBytes": "20"
      },
      "t_array(t_struct(Car)10_storage)dyn_storage": {
        "base": "t_struct(Car)10_storage",
        "encoding": "dynamic_array",
        "label": "struct GarageManager.Car[]",
        "numberOfBytes": "32"
      },
      "t_mapping(t_address,t_array(t_struct(Car)10_storage)dyn_storage)": {
        "encoding": "mapping",
        "key": "t_address",
        "label": "mapping(address => struct GarageManager.Car[])",
        "numberOfBytes": "32",
        "value": "t_array(t_struct(Car)10_storage)dyn_storage"
      },
      "t_string_storage": {
        "encoding": "bytes",
        "label": "string",
        "numberOfBytes": "32"
      },
      "t_struct(Car)10_storage": {
        "encoding": "inplace",
        "label": "struct GarageManager.Car",
        "members": [
          {
            "astId": 3,
            "contract": "contracts/Structs/GarageManager.sol:GarageManager",
            "label": "make",
            "offset": 0,
            "slot": "0",
            "type": "t_string_storage"
          },
          {
            "astId": 5,
            "contract": "contracts/Structs/GarageManager.sol:GarageManager",
            "label": "model",
            "offset": 0,
            "slot": "1",
            "type": "t_string_storage"
          },
          {
            "astId": 7,
            "contract": "contracts/Structs/GarageManager.sol:GarageManager",
            "label": "color",
            "offset": 0,
            "slot": "2",
            "type": "t_string_storage"
          },
          {
            "astId": 9,
            "contract": "contracts/Structs/GarageManager.sol:GarageManager",
            "label": "numberOfDoors",
            "offset": 0,
            "slot": "3",
            "type": "t_uint256"
          }
        ],
        "numberOfBytes": "128"
      },
      "t_uint256": {
        "encoding": "inplace",
        "label": "uint256",
        "numberOfBytes": "32"
      }
    }
  }
}