{
  "address": "0x2333Bc53EcbD21E5b2578c37B1600F178EB8C7A3",
  "abi": [
    {
      "inputs": [],
      "name": "getHaiku",
      "outputs": [
        {
          "components": [
            {
              "internalType": "string",
              "name": "line1",
              "type": "string"
            },
            {
              "internalType": "string",
              "name": "line2",
              "type": "string"
            },
            {
              "internalType": "string",
              "name": "line3",
              "type": "string"
            }
          ],
          "internalType": "struct SillyStringUtils.Haiku",
          "name": "",
          "type": "tuple"
        }
      ],
      "stateMutability": "view",
      "type": "function"
    },
    {
      "inputs": [],
      "name": "haiku",
      "outputs": [
        {
          "internalType": "string",
          "name": "line1",
          "type": "string"
        },
        {
          "internalType": "string",
          "name": "line2",
          "type": "string"
        },
        {
          "internalType": "string",
          "name": "line3",
          "type": "string"
        }
      ],
      "stateMutability": "view",
      "type": "function"
    },
    {
      "inputs": [
        {
          "internalType": "string",
          "name": "_line1",
          "type": "string"
        },
        {
          "internalType": "string",
          "name": "_line2",
          "type": "string"
        },
        {
          "internalType": "string",
          "name": "_line3",
          "type": "string"
        }
      ],
      "name": "saveHaiku",
      "outputs": [],
      "stateMutability": "nonpayable",
      "type": "function"
    },
    {
      "inputs": [],
      "name": "shruggieHaiku",
      "outputs": [
        {
          "components": [
            {
              "internalType": "string",
              "name": "line1",
              "type": "string"
            },
            {
              "internalType": "string",
              "name": "line2",
              "type": "string"
            },
            {
              "internalType": "string",
              "name": "line3",
              "type": "string"
            }
          ],
          "internalType": "struct SillyStringUtils.Haiku",
          "name": "_haiku",
          "type": "tuple"
        }
      ],
      "stateMutability": "view",
      "type": "function"
    }
  ],
  "transactionHash": "0xe0b40e57b3dcf12ae61733b6af1c2a319e8a202635ecbc9a1302567524383cd1",
  "args": [],
  "numDeployments": 1,
  "solcInputHash": "defb7a36e77c436a99c73ef473c202d0",
  "bytecode": "0x608060405234801561001057600080fd5b50610af8806100206000396000f3fe608060405234801561001057600080fd5b506004361061004c5760003560e01c806325eb69a914610051578063583dc7691461006f578063728d3c07146100845780638346cbef1461009b575b600080fd5b6100596100a3565b60405161006691906107b3565b60405180910390f35b61008261007d36600461085d565b61028f565b005b61008c61038e565b604051610066939291906108f7565b61005961053c565b6100c760405180606001604052806060815260200160608152602001606081525090565b60006040518060600160405290816000820180546100e49061093a565b80601f01602080910402602001604051908101604052809291908181526020018280546101109061093a565b801561015d5780601f106101325761010080835404028352916020019161015d565b820191906000526020600020905b81548152906001019060200180831161014057829003601f168201915b505050505081526020016001820180546101769061093a565b80601f01602080910402602001604051908101604052809291908181526020018280546101a29061093a565b80156101ef5780601f106101c4576101008083540402835291602001916101ef565b820191906000526020600020905b8154815290600101906020018083116101d257829003601f168201915b505050505081526020016002820180546102089061093a565b80601f01602080910402602001604051908101604052809291908181526020018280546102349061093a565b80156102815780601f1061025657610100808354040283529160200191610281565b820191906000526020600020905b81548152906001019060200180831161026457829003601f168201915b505050505081525050905090565b604051806060016040528087878080601f016020809104026020016040519081016040528093929190818152602001838380828437600092019190915250505090825250604080516020601f880181900481028201810190925286815291810191908790879081908401838280828437600092019190915250505090825250604080516020601f86018190048102820181019092528481529181019190859085908190840183828082843760009201829052509390945250508251909150819061035990826109d9565b506020820151600182019061036e90826109d9565b506040820151600282019061038390826109d9565b505050505050505050565b60008054819061039d9061093a565b80601f01602080910402602001604051908101604052809291908181526020018280546103c99061093a565b80156104165780601f106103eb57610100808354040283529160200191610416565b820191906000526020600020905b8154815290600101906020018083116103f957829003601f168201915b50505050509080600101805461042b9061093a565b80601f01602080910402602001604051908101604052809291908181526020018280546104579061093a565b80156104a45780601f10610479576101008083540402835291602001916104a4565b820191906000526020600020905b81548152906001019060200180831161048757829003601f168201915b5050505050908060020180546104b99061093a565b80601f01602080910402602001604051908101604052809291908181526020018280546104e59061093a565b80156105325780601f1061050757610100808354040283529160200191610532565b820191906000526020600020905b81548152906001019060200180831161051557829003601f168201915b5050505050905083565b61056060405180606001604052806060815260200160608152602001606081525090565b600060405180606001604052908160008201805461057d9061093a565b80601f01602080910402602001604051908101604052809291908181526020018280546105a99061093a565b80156105f65780601f106105cb576101008083540402835291602001916105f6565b820191906000526020600020905b8154815290600101906020018083116105d957829003601f168201915b5050505050815260200160018201805461060f9061093a565b80601f016020809104026020016040519081016040528092919081815260200182805461063b9061093a565b80156106885780601f1061065d57610100808354040283529160200191610688565b820191906000526020600020905b81548152906001019060200180831161066b57829003601f168201915b505050505081526020016002820180546106a19061093a565b80601f01602080910402602001604051908101604052809291908181526020018280546106cd9061093a565b801561071a5780601f106106ef5761010080835404028352916020019161071a565b820191906000526020600020905b8154815290600101906020018083116106fd57829003601f168201915b5050505050815250509050610732816040015161073a565b604082015290565b60608160405160200161074d9190610a99565b6040516020818303038152906040529050919050565b60005b8381101561077e578181015183820152602001610766565b50506000910152565b6000815180845261079f816020860160208601610763565b601f01601f19169290920160200192915050565b6020815260008251606060208401526107cf6080840182610787565b90506020840151601f19808584030160408601526107ed8383610787565b925060408601519150808584030160608601525061080b8282610787565b95945050505050565b60008083601f84011261082657600080fd5b50813567ffffffffffffffff81111561083e57600080fd5b60208301915083602082850101111561085657600080fd5b9250929050565b6000806000806000806060878903121561087657600080fd5b863567ffffffffffffffff8082111561088e57600080fd5b61089a8a838b01610814565b909850965060208901359150808211156108b357600080fd5b6108bf8a838b01610814565b909650945060408901359150808211156108d857600080fd5b506108e589828a01610814565b979a9699509497509295939492505050565b60608152600061090a6060830186610787565b828103602084015261091c8186610787565b905082810360408401526109308185610787565b9695505050505050565b600181811c9082168061094e57607f821691505b60208210810361096e57634e487b7160e01b600052602260045260246000fd5b50919050565b634e487b7160e01b600052604160045260246000fd5b601f8211156109d457600081815260208120601f850160051c810160208610156109b15750805b601f850160051c820191505b818110156109d0578281556001016109bd565b5050505b505050565b815167ffffffffffffffff8111156109f3576109f3610974565b610a0781610a01845461093a565b8461098a565b602080601f831160018114610a3c5760008415610a245750858301515b600019600386901b1c1916600185901b1785556109d0565b600085815260208120601f198616915b82811015610a6b57888601518255948401946001909101908401610a4c565b5085821015610a895787850151600019600388901b60f8161c191681555b5050505050600190811b01905550565b60008251610aab818460208701610763565b6420f09fa4b760d81b92019182525060050191905056fea26469706673582212206a573fb47ad8409566a10063eede91379ce4ef7df31cb9eaab4b6a748afd00af64736f6c63430008140033",
  "devdoc": {
    "kind": "dev",
    "methods": {},
    "version": 1
  },
  "userdoc": {
    "kind": "user",
    "methods": {},
    "version": 1
  },
  "storageLayout": {
    "storage": [
      {
        "astId": 9,
        "contract": "contracts/Imports/ImportsExercise.sol:ImportsExercise",
        "label": "haiku",
        "offset": 0,
        "slot": "0",
        "type": "t_struct(Haiku)67_storage"
      }
    ],
    "types": {
      "t_string_storage": {
        "encoding": "bytes",
        "label": "string",
        "numberOfBytes": "32"
      },
      "t_struct(Haiku)67_storage": {
        "encoding": "inplace",
        "label": "struct SillyStringUtils.Haiku",
        "members": [
          {
            "astId": 62,
            "contract": "contracts/Imports/ImportsExercise.sol:ImportsExercise",
            "label": "line1",
            "offset": 0,
            "slot": "0",
            "type": "t_string_storage"
          },
          {
            "astId": 64,
            "contract": "contracts/Imports/ImportsExercise.sol:ImportsExercise",
            "label": "line2",
            "offset": 0,
            "slot": "1",
            "type": "t_string_storage"
          },
          {
            "astId": 66,
            "contract": "contracts/Imports/ImportsExercise.sol:ImportsExercise",
            "label": "line3",
            "offset": 0,
            "slot": "2",
            "type": "t_string_storage"
          }
        ],
        "numberOfBytes": "96"
      }
    }
  }
}