{
  "address": "0x01BADA9a934d9244F2B14a2a75Ef0B8764482C54",
  "abi": [
    {
      "inputs": [
        {
          "internalType": "address",
          "name": "_salesPerson",
          "type": "address"
        },
        {
          "internalType": "address",
          "name": "_engineeringManager",
          "type": "address"
        }
      ],
      "stateMutability": "nonpayable",
      "type": "constructor"
    },
    {
      "inputs": [],
      "name": "engineeringManager",
      "outputs": [
        {
          "internalType": "address",
          "name": "",
          "type": "address"
        }
      ],
      "stateMutability": "view",
      "type": "function"
    },
    {
      "inputs": [],
      "name": "salesPerson",
      "outputs": [
        {
          "internalType": "address",
          "name": "",
          "type": "address"
        }
      ],
      "stateMutability": "view",
      "type": "function"
    }
  ],
  "transactionHash": "0x9151a05618942ddd48a9c57d0eb304137d1f2e6f648737a77886f324e3e2d8b8",
  "args": [
    "0x6AccA7Cf5c622d68Bc393525D1926B56ff7bF7c0",
    "0x88842a52083e84c1708F87750f496E9ee6C211a9"
  ],
  "numDeployments": 1,
  "solcInputHash": "2336cc388017c663613de2654a82727f",
  "bytecode": "0x608060405234801561001057600080fd5b5060405161016a38038061016a83398101604081905261002f9161007c565b600080546001600160a01b039384166001600160a01b031991821617909155600180549290931691161790556100af565b80516001600160a01b038116811461007757600080fd5b919050565b6000806040838503121561008f57600080fd5b61009883610060565b91506100a660208401610060565b90509250929050565b60ad806100bd6000396000f3fe6080604052348015600f57600080fd5b506004361060325760003560e01c80630f628194146037578063687981dd146065575b600080fd5b6000546049906001600160a01b031681565b6040516001600160a01b03909116815260200160405180910390f35b6001546049906001600160a01b03168156fea264697066735822122071f33bd790a6b13c8b133d2eb774ab869c76c480edaf89bba49403620fccca1764736f6c63430008140033",
  "devdoc": {
    "kind": "dev",
    "methods": {},
    "version": 1
  },
  "userdoc": {
    "kind": "user",
    "methods": {},
    "version": 1
  },
  "storageLayout": {
    "storage": [
      {
        "astId": 3,
        "contract": "contracts/Inheritance/InheritanceSubmission.sol:InheritanceSubmission",
        "label": "salesPerson",
        "offset": 0,
        "slot": "0",
        "type": "t_address"
      },
      {
        "astId": 5,
        "contract": "contracts/Inheritance/InheritanceSubmission.sol:InheritanceSubmission",
        "label": "engineeringManager",
        "offset": 0,
        "slot": "1",
        "type": "t_address"
      }
    ],
    "types": {
      "t_address": {
        "encoding": "inplace",
        "label": "address",
        "numberOfBytes": "20"
      }
    }
  }
}