{
  "address": "0x6AccA7Cf5c622d68Bc393525D1926B56ff7bF7c0",
  "abi": [
    {
      "inputs": [
        {
          "internalType": "uint256",
          "name": "_idNumber",
          "type": "uint256"
        },
        {
          "internalType": "uint256",
          "name": "_managerId",
          "type": "uint256"
        },
        {
          "internalType": "uint256",
          "name": "_hourlyRate",
          "type": "uint256"
        }
      ],
      "stateMutability": "nonpayable",
      "type": "constructor"
    },
    {
      "inputs": [],
      "name": "getAnnualCost",
      "outputs": [
        {
          "internalType": "uint256",
          "name": "",
          "type": "uint256"
        }
      ],
      "stateMutability": "view",
      "type": "function"
    },
    {
      "inputs": [],
      "name": "hourlyRate",
      "outputs": [
        {
          "internalType": "uint256",
          "name": "",
          "type": "uint256"
        }
      ],
      "stateMutability": "view",
      "type": "function"
    },
    {
      "inputs": [],
      "name": "idNumber",
      "outputs": [
        {
          "internalType": "uint256",
          "name": "",
          "type": "uint256"
        }
      ],
      "stateMutability": "view",
      "type": "function"
    },
    {
      "inputs": [],
      "name": "managerId",
      "outputs": [
        {
          "internalType": "uint256",
          "name": "",
          "type": "uint256"
        }
      ],
      "stateMutability": "view",
      "type": "function"
    }
  ],
  "transactionHash": "0x9c19583182b7c4163707e61336cd88db6dc34c58235e5fded033872900dfaaad",
  "args": [
    55555,
    12345,
    20
  ],
  "numDeployments": 1,
  "solcInputHash": "2336cc388017c663613de2654a82727f",
  "bytecode": "0x608060405234801561001057600080fd5b5060405161016c38038061016c83398101604081905261002f91610040565b60009290925560015560025561006e565b60008060006060848603121561005557600080fd5b8351925060208401519150604084015190509250925092565b60f08061007c6000396000f3fe6080604052348015600f57600080fd5b506004361060465760003560e01c80633f83ea3b14604b57806359a7b3fe1460655780635cdee0c014606d578063f5895a0a146073575b600080fd5b605360005481565b60405190815260200160405180910390f35b605360025481565b6053607b565b605360015481565b6000600254610820608b91906090565b905090565b808202811582820484141760b457634e487b7160e01b600052601160045260246000fd5b9291505056fea26469706673582212205d8c13a0fe712abfb3b5dd9ad656c9147e2ee0b8235cac66016d819210e5677764736f6c63430008140033",
  "devdoc": {
    "kind": "dev",
    "methods": {},
    "version": 1
  },
  "userdoc": {
    "kind": "user",
    "methods": {},
    "version": 1
  },
  "storageLayout": {
    "storage": [
      {
        "astId": 24,
        "contract": "contracts/Inheritance/InheritanceSubmission.sol:Salesperson",
        "label": "idNumber",
        "offset": 0,
        "slot": "0",
        "type": "t_uint256"
      },
      {
        "astId": 26,
        "contract": "contracts/Inheritance/InheritanceSubmission.sol:Salesperson",
        "label": "managerId",
        "offset": 0,
        "slot": "1",
        "type": "t_uint256"
      },
      {
        "astId": 85,
        "contract": "contracts/Inheritance/InheritanceSubmission.sol:Salesperson",
        "label": "hourlyRate",
        "offset": 0,
        "slot": "2",
        "type": "t_uint256"
      }
    ],
    "types": {
      "t_uint256": {
        "encoding": "inplace",
        "label": "uint256",
        "numberOfBytes": "32"
      }
    }
  }
}