{
  "address": "0xb9797E188c2BAF7e03265704Edbaf865Bc5833a1",
  "abi": [
    {
      "inputs": [],
      "stateMutability": "nonpayable",
      "type": "constructor"
    },
    {
      "inputs": [],
      "name": "AllTokensClaimed",
      "type": "error"
    },
    {
      "inputs": [],
      "name": "TokensClaimed",
      "type": "error"
    },
    {
      "inputs": [
        {
          "internalType": "address",
          "name": "_to",
          "type": "address"
        }
      ],
      "name": "UnsafeTransfer",
      "type": "error"
    },
    {
      "inputs": [
        {
          "internalType": "address",
          "name": "",
          "type": "address"
        }
      ],
      "name": "balances",
      "outputs": [
        {
          "internalType": "uint256",
          "name": "",
          "type": "uint256"
        }
      ],
      "stateMutability": "view",
      "type": "function"
    },
    {
      "inputs": [],
      "name": "claim",
      "outputs": [],
      "stateMutability": "nonpayable",
      "type": "function"
    },
    {
      "inputs": [
        {
          "internalType": "address",
          "name": "",
          "type": "address"
        }
      ],
      "name": "claimed",
      "outputs": [
        {
          "internalType": "bool",
          "name": "",
          "type": "bool"
        }
      ],
      "stateMutability": "view",
      "type": "function"
    },
    {
      "inputs": [
        {
          "internalType": "address",
          "name": "_to",
          "type": "address"
        },
        {
          "internalType": "uint256",
          "name": "_amount",
          "type": "uint256"
        }
      ],
      "name": "safeTransfer",
      "outputs": [],
      "stateMutability": "nonpayable",
      "type": "function"
    },
    {
      "inputs": [],
      "name": "totalClaimed",
      "outputs": [
        {
          "internalType": "uint256",
          "name": "",
          "type": "uint256"
        }
      ],
      "stateMutability": "view",
      "type": "function"
    },
    {
      "inputs": [],
      "name": "totalSupply",
      "outputs": [
        {
          "internalType": "uint256",
          "name": "",
          "type": "uint256"
        }
      ],
      "stateMutability": "view",
      "type": "function"
    }
  ],
  "transactionHash": "0xf14c90dcc990950905cd29a3f8042a1a72d0622b074e05bbc589b158597fda6b",
  "args": [],
  "numDeployments": 2,
  "solcInputHash": "1b23b96db9821800f98a00bbc34cad63",
  "bytecode": "0x6080604052348015600f57600080fd5b506305f5e10060025561033c806100276000396000f3fe608060405234801561001057600080fd5b50600436106100625760003560e01c806318160ddd1461006757806327e235e314610083578063423f6cef146100a35780634e71d92d146100b8578063c884ef83146100c0578063d54ad2a1146100f3575b600080fd5b61007060025481565b6040519081526020015b60405180910390f35b610070610091366004610278565b60006020819052908152604090205481565b6100b66100b136600461029a565b6100fc565b005b6100b66101c1565b6100e36100ce366004610278565b60016020526000908152604090205460ff1681565b604051901515815260200161007a565b61007060035481565b6001600160a01b03821660000361013657604051631aa1b49360e21b81526001600160a01b03831660048201526024015b60405180910390fd5b816001600160a01b03163160000361016c57604051631aa1b49360e21b81526001600160a01b038316600482015260240161012d565b336000908152602081905260408120805483929061018b9084906102da565b90915550506001600160a01b038216600090815260208190526040812080548392906101b89084906102f3565b90915550505050565b600254600354036101e55760405163cbe2483160e01b815260040160405180910390fd5b3360009081526001602052604090205460ff16156102165760405163058993d360e11b815260040160405180910390fd5b336000908152602081815260408083206103e890819055600192839052908320805460ff191690921790915560038054919290916102559084906102f3565b9091555050565b80356001600160a01b038116811461027357600080fd5b919050565b60006020828403121561028a57600080fd5b6102938261025c565b9392505050565b600080604083850312156102ad57600080fd5b6102b68361025c565b946020939093013593505050565b634e487b7160e01b600052601160045260246000fd5b818103818111156102ed576102ed6102c4565b92915050565b808201808211156102ed576102ed6102c456fea26469706673582212202ed0939e7e5946a1c69b5a3b3d09ebf7f24467b587752653e95b7ba264011ad064736f6c634300081a0033",
  "devdoc": {
    "kind": "dev",
    "methods": {},
    "version": 1
  },
  "userdoc": {
    "kind": "user",
    "methods": {},
    "version": 1
  },
  "storageLayout": {
    "storage": [
      {
        "astId": 5,
        "contract": "contracts/MinimalTokens/UnburnableToken.sol:UnburnableToken",
        "label": "balances",
        "offset": 0,
        "slot": "0",
        "type": "t_mapping(t_address,t_uint256)"
      },
      {
        "astId": 9,
        "contract": "contracts/MinimalTokens/UnburnableToken.sol:UnburnableToken",
        "label": "claimed",
        "offset": 0,
        "slot": "1",
        "type": "t_mapping(t_address,t_bool)"
      },
      {
        "astId": 11,
        "contract": "contracts/MinimalTokens/UnburnableToken.sol:UnburnableToken",
        "label": "totalSupply",
        "offset": 0,
        "slot": "2",
        "type": "t_uint256"
      },
      {
        "astId": 13,
        "contract": "contracts/MinimalTokens/UnburnableToken.sol:UnburnableToken",
        "label": "totalClaimed",
        "offset": 0,
        "slot": "3",
        "type": "t_uint256"
      }
    ],
    "types": {
      "t_address": {
        "encoding": "inplace",
        "label": "address",
        "numberOfBytes": "20"
      },
      "t_bool": {
        "encoding": "inplace",
        "label": "bool",
        "numberOfBytes": "1"
      },
      "t_mapping(t_address,t_bool)": {
        "encoding": "mapping",
        "key": "t_address",
        "label": "mapping(address => bool)",
        "numberOfBytes": "32",
        "value": "t_bool"
      },
      "t_mapping(t_address,t_uint256)": {
        "encoding": "mapping",
        "key": "t_address",
        "label": "mapping(address => uint256)",
        "numberOfBytes": "32",
        "value": "t_uint256"
      },
      "t_uint256": {
        "encoding": "inplace",
        "label": "uint256",
        "numberOfBytes": "32"
      }
    }
  }
}