{
  "address": "0xeb1337B6CF82E429A4AefCc6d629Ff43510cBF8E",
  "abi": [
    {
      "inputs": [
        {
          "internalType": "string",
          "name": "name_",
          "type": "string"
        },
        {
          "internalType": "string",
          "name": "symbol_",
          "type": "string"
        }
      ],
      "stateMutability": "nonpayable",
      "type": "constructor"
    },
    {
      "inputs": [],
      "name": "AllTokensClaimed",
      "type": "error"
    },
    {
      "inputs": [],
      "name": "AlreadyVoted",
      "type": "error"
    },
    {
      "inputs": [
        {
          "internalType": "address",
          "name": "spender",
          "type": "address"
        },
        {
          "internalType": "uint256",
          "name": "allowance",
          "type": "uint256"
        },
        {
          "internalType": "uint256",
          "name": "needed",
          "type": "uint256"
        }
      ],
      "name": "ERC20InsufficientAllowance",
      "type": "error"
    },
    {
      "inputs": [
        {
          "internalType": "address",
          "name": "sender",
          "type": "address"
        },
        {
          "internalType": "uint256",
          "name": "balance",
          "type": "uint256"
        },
        {
          "internalType": "uint256",
          "name": "needed",
          "type": "uint256"
        }
      ],
      "name": "ERC20InsufficientBalance",
      "type": "error"
    },
    {
      "inputs": [
        {
          "internalType": "address",
          "name": "approver",
          "type": "address"
        }
      ],
      "name": "ERC20InvalidApprover",
      "type": "error"
    },
    {
      "inputs": [
        {
          "internalType": "address",
          "name": "receiver",
          "type": "address"
        }
      ],
      "name": "ERC20InvalidReceiver",
      "type": "error"
    },
    {
      "inputs": [
        {
          "internalType": "address",
          "name": "sender",
          "type": "address"
        }
      ],
      "name": "ERC20InvalidSender",
      "type": "error"
    },
    {
      "inputs": [
        {
          "internalType": "address",
          "name": "spender",
          "type": "address"
        }
      ],
      "name": "ERC20InvalidSpender",
      "type": "error"
    },
    {
      "inputs": [],
      "name": "NoTokensHeld",
      "type": "error"
    },
    {
      "inputs": [
        {
          "internalType": "uint256",
          "name": "quorum_",
          "type": "uint256"
        }
      ],
      "name": "QuorumTooHigh",
      "type": "error"
    },
    {
      "inputs": [],
      "name": "TokensClaimed",
      "type": "error"
    },
    {
      "inputs": [],
      "name": "VotingClosed",
      "type": "error"
    },
    {
      "anonymous": false,
      "inputs": [
        {
          "indexed": true,
          "internalType": "address",
          "name": "owner",
          "type": "address"
        },
        {
          "indexed": true,
          "internalType": "address",
          "name": "spender",
          "type": "address"
        },
        {
          "indexed": false,
          "internalType": "uint256",
          "name": "value",
          "type": "uint256"
        }
      ],
      "name": "Approval",
      "type": "event"
    },
    {
      "anonymous": false,
      "inputs": [
        {
          "indexed": true,
          "internalType": "address",
          "name": "from",
          "type": "address"
        },
        {
          "indexed": true,
          "internalType": "address",
          "name": "to",
          "type": "address"
        },
        {
          "indexed": false,
          "internalType": "uint256",
          "name": "value",
          "type": "uint256"
        }
      ],
      "name": "Transfer",
      "type": "event"
    },
    {
      "inputs": [
        {
          "internalType": "address",
          "name": "owner",
          "type": "address"
        },
        {
          "internalType": "address",
          "name": "spender",
          "type": "address"
        }
      ],
      "name": "allowance",
      "outputs": [
        {
          "internalType": "uint256",
          "name": "",
          "type": "uint256"
        }
      ],
      "stateMutability": "view",
      "type": "function"
    },
    {
      "inputs": [
        {
          "internalType": "address",
          "name": "spender",
          "type": "address"
        },
        {
          "internalType": "uint256",
          "name": "value",
          "type": "uint256"
        }
      ],
      "name": "approve",
      "outputs": [
        {
          "internalType": "bool",
          "name": "",
          "type": "bool"
        }
      ],
      "stateMutability": "nonpayable",
      "type": "function"
    },
    {
      "inputs": [
        {
          "internalType": "address",
          "name": "account",
          "type": "address"
        }
      ],
      "name": "balanceOf",
      "outputs": [
        {
          "internalType": "uint256",
          "name": "",
          "type": "uint256"
        }
      ],
      "stateMutability": "view",
      "type": "function"
    },
    {
      "inputs": [],
      "name": "claim",
      "outputs": [],
      "stateMutability": "nonpayable",
      "type": "function"
    },
    {
      "inputs": [
        {
          "internalType": "string",
          "name": "issueDesc_",
          "type": "string"
        },
        {
          "internalType": "uint256",
          "name": "quorum_",
          "type": "uint256"
        }
      ],
      "name": "createIssue",
      "outputs": [
        {
          "internalType": "uint256",
          "name": "index_",
          "type": "uint256"
        }
      ],
      "stateMutability": "nonpayable",
      "type": "function"
    },
    {
      "inputs": [],
      "name": "decimals",
      "outputs": [
        {
          "internalType": "uint8",
          "name": "",
          "type": "uint8"
        }
      ],
      "stateMutability": "view",
      "type": "function"
    },
    {
      "inputs": [
        {
          "internalType": "uint256",
          "name": "issueId_",
          "type": "uint256"
        }
      ],
      "name": "getIssue",
      "outputs": [
        {
          "components": [
            {
              "internalType": "address[]",
              "name": "voters",
              "type": "address[]"
            },
            {
              "internalType": "string",
              "name": "issueDesc",
              "type": "string"
            },
            {
              "internalType": "uint256",
              "name": "votesFor",
              "type": "uint256"
            },
            {
              "internalType": "uint256",
              "name": "votesAgainst",
              "type": "uint256"
            },
            {
              "internalType": "uint256",
              "name": "votesAbstain",
              "type": "uint256"
            },
            {
              "internalType": "uint256",
              "name": "totalVotes",
              "type": "uint256"
            },
            {
              "internalType": "uint256",
              "name": "quorum",
              "type": "uint256"
            },
            {
              "internalType": "bool",
              "name": "passed",
              "type": "bool"
            },
            {
              "internalType": "bool",
              "name": "closed",
              "type": "bool"
            }
          ],
          "internalType": "struct WeightedVoting.ReturnableIssue",
          "name": "issue_",
          "type": "tuple"
        }
      ],
      "stateMutability": "view",
      "type": "function"
    },
    {
      "inputs": [],
      "name": "name",
      "outputs": [
        {
          "internalType": "string",
          "name": "",
          "type": "string"
        }
      ],
      "stateMutability": "view",
      "type": "function"
    },
    {
      "inputs": [],
      "name": "symbol",
      "outputs": [
        {
          "internalType": "string",
          "name": "",
          "type": "string"
        }
      ],
      "stateMutability": "view",
      "type": "function"
    },
    {
      "inputs": [],
      "name": "totalSupply",
      "outputs": [
        {
          "internalType": "uint256",
          "name": "",
          "type": "uint256"
        }
      ],
      "stateMutability": "view",
      "type": "function"
    },
    {
      "inputs": [
        {
          "internalType": "address",
          "name": "to",
          "type": "address"
        },
        {
          "internalType": "uint256",
          "name": "value",
          "type": "uint256"
        }
      ],
      "name": "transfer",
      "outputs": [
        {
          "internalType": "bool",
          "name": "",
          "type": "bool"
        }
      ],
      "stateMutability": "nonpayable",
      "type": "function"
    },
    {
      "inputs": [
        {
          "internalType": "address",
          "name": "from",
          "type": "address"
        },
        {
          "internalType": "address",
          "name": "to",
          "type": "address"
        },
        {
          "internalType": "uint256",
          "name": "value",
          "type": "uint256"
        }
      ],
      "name": "transferFrom",
      "outputs": [
        {
          "internalType": "bool",
          "name": "",
          "type": "bool"
        }
      ],
      "stateMutability": "nonpayable",
      "type": "function"
    },
    {
      "inputs": [
        {
          "internalType": "uint256",
          "name": "issueId_",
          "type": "uint256"
        },
        {
          "internalType": "enum WeightedVoting.Vote",
          "name": "vote_",
          "type": "uint8"
        }
      ],
      "name": "vote",
      "outputs": [],
      "stateMutability": "nonpayable",
      "type": "function"
    }
  ],
  "transactionHash": "0x9ec2450487c6b86b7304321438234363b594ea89ca6f6ef3c34d76af0b8c7b23",
  "args": [
    "WeightedVoting",
    "WV"
  ],
  "numDeployments": 8,
  "solcInputHash": "9636f416ebce2ccda1d8a910b824162c",
  "bytecode": "0x6080604052620f424060055534801561001757600080fd5b506040516112e43803806112e483398101604081905261003691610121565b818160036100448382610213565b5060046100518282610213565b5050600780546001018155600052506102d1915050565b634e487b7160e01b600052604160045260246000fd5b600082601f83011261008f57600080fd5b81516001600160401b038111156100a8576100a8610068565b604051601f8201601f19908116603f011681016001600160401b03811182821017156100d6576100d6610068565b6040528181528382016020018510156100ee57600080fd5b60005b8281101561010d576020818601810151838301820152016100f1565b506000918101602001919091529392505050565b6000806040838503121561013457600080fd5b82516001600160401b0381111561014a57600080fd5b6101568582860161007e565b602085015190935090506001600160401b0381111561017457600080fd5b6101808582860161007e565b9150509250929050565b600181811c9082168061019e57607f821691505b6020821081036101be57634e487b7160e01b600052602260045260246000fd5b50919050565b601f82111561020e57806000526020600020601f840160051c810160208510156101eb5750805b601f840160051c820191505b8181101561020b57600081556001016101f7565b50505b505050565b81516001600160401b0381111561022c5761022c610068565b6102408161023a845461018a565b846101c4565b6020601f821160018114610274576000831561025c5750848201515b600019600385901b1c1916600184901b17845561020b565b600084815260208120601f198516915b828110156102a45787850151825560209485019460019092019101610284565b50848210156102c25786840151600019600387901b60f8161c191681555b50505050600190811b01905550565b611004806102e06000396000f3fe608060405234801561001057600080fd5b50600436106100cf5760003560e01c806370a082311161008c57806395d89b411161006657806395d89b41146101a2578063976b3113146101aa578063a9059cbb146101ca578063dd62ed3e146101dd57600080fd5b806370a08231146101535780638615d8551461017c578063943e82161461018f57600080fd5b806306fdde03146100d4578063095ea7b3146100f257806318160ddd1461011557806323b872dd14610127578063313ce5671461013a5780634e71d92d14610149575b600080fd5b6100dc610216565b6040516100e99190610b7d565b60405180910390f35b610105610100366004610bac565b6102a8565b60405190151581526020016100e9565b6002545b6040519081526020016100e9565b610105610135366004610bd6565b6102c2565b604051601281526020016100e9565b6101516102e6565b005b610119610161366004610c13565b6001600160a01b031660009081526020819052604090205490565b61011961018a366004610c2e565b610375565b61015161019d366004610ca7565b61044e565b6100dc6105b6565b6101bd6101b8366004610cdb565b6105c5565b6040516100e99190610d39565b6101056101d8366004610bac565b610732565b6101196101eb366004610dd5565b6001600160a01b03918216600090815260016020908152604080832093909416825291909152205490565b60606003805461022590610e08565b80601f016020809104026020016040519081016040528092919081815260200182805461025190610e08565b801561029e5780601f106102735761010080835404028352916020019161029e565b820191906000526020600020905b81548152906001019060200180831161028157829003601f168201915b5050505050905090565b6000336102b6818585610740565b60019150505b92915050565b6000336102d0858285610752565b6102db8585856107cb565b506001949350505050565b60055460646102f460025490565b6102fe9190610e58565b111561031d5760405163cbe2483160e01b815260040160405180910390fd5b3360009081526006602052604090205460ff161561034e5760405163058993d360e11b815260040160405180910390fd5b61035933606461082a565b336000908152600660205260409020805460ff19166001179055565b600061038033610161565b6000036103a057604051638439960d60e01b815260040160405180910390fd5b6002548211156103cb57604051632c4d24a960e11b8152600481018390526024015b60405180910390fd5b600780546001810182556000919091526009027fa66cc928b5edb82af9bd49922954155ab7b0942694bea4ce44661d9a8736c6888101907fa66cc928b5edb82af9bd49922954155ab7b0942694bea4ce44661d9a8736c68a0161042f858783610ecf565b5060078082018490555461044590600190610f8f565b95945050505050565b60006007838154811061046357610463610fa2565b906000526020600020906009020190508060080160019054906101000a900460ff16156104a35760405163335b65a560e11b815260040160405180910390fd5b6104ad8133610864565b6104ca57604051637c9a1cf960e01b815260040160405180910390fd5b60006104d533610161565b9050808260060160008282546104eb9190610e58565b909155506001905083600281111561050557610505610fb8565b03610529578082600301600082825461051e9190610e58565b909155506105709050565b600083600281111561053d5761053d610fb8565b03610556578082600401600082825461051e9190610e58565b8082600501600082825461056a9190610e58565b90915550505b81600701548260060154106105b05760088201805461ff0019166101001790556004820154600383015411156105b05760088201805460ff191660011790555b50505050565b60606004805461022590610e08565b610618604051806101200160405280606081526020016060815260200160008152602001600081526020016000815260200160008152602001600081526020016000151581526020016000151581525090565b60006007838154811061062d5761062d610fa2565b9060005260206000209060090201905061064981600001610880565b825260028101805461065a90610e08565b80601f016020809104026020016040519081016040528092919081815260200182805461068690610e08565b80156106d35780601f106106a8576101008083540402835291602001916106d3565b820191906000526020600020905b8154815290600101906020018083116106b657829003601f168201915b50505050506020830152600381015460408301526004810154606083015260058101546080830152600681015460a0830152600781015460c08301526008015460ff808216151560e08401526101009182900416151590820152919050565b6000336102b68185856107cb565b61074d838383600161088d565b505050565b6001600160a01b038381166000908152600160209081526040808320938616835292905220546000198110156105b057818110156107bc57604051637dc7a0d960e11b81526001600160a01b038416600482015260248101829052604481018390526064016103c2565b6105b08484848403600061088d565b6001600160a01b0383166107f557604051634b637e8f60e11b8152600060048201526024016103c2565b6001600160a01b03821661081f5760405163ec442f0560e01b8152600060048201526024016103c2565b61074d838383610962565b6001600160a01b0382166108545760405163ec442f0560e01b8152600060048201526024016103c2565b61086060008383610962565b5050565b6000610879836001600160a01b038416610a8c565b9392505050565b6060600061087983610adb565b6001600160a01b0384166108b75760405163e602df0560e01b8152600060048201526024016103c2565b6001600160a01b0383166108e157604051634a1406b160e11b8152600060048201526024016103c2565b6001600160a01b03808516600090815260016020908152604080832093871683529290522082905580156105b057826001600160a01b0316846001600160a01b03167f8c5be1e5ebec7d5bd14f71427d1e84f3dd0314c0f7b2291e5b200ac8c7c3b9258460405161095491815260200190565b60405180910390a350505050565b6001600160a01b03831661098d5780600260008282546109829190610e58565b909155506109ff9050565b6001600160a01b038316600090815260208190526040902054818110156109e05760405163391434e360e21b81526001600160a01b038516600482015260248101829052604481018390526064016103c2565b6001600160a01b03841660009081526020819052604090209082900390555b6001600160a01b038216610a1b57600280548290039055610a3a565b6001600160a01b03821660009081526020819052604090208054820190555b816001600160a01b0316836001600160a01b03167fddf252ad1be2c89b69c2b068fc378daa952ba7f163c4a11628f55a4df523b3ef83604051610a7f91815260200190565b60405180910390a3505050565b6000818152600183016020526040812054610ad3575081546001818101845560008481526020808220909301849055845484825282860190935260409020919091556102bc565b5060006102bc565b606081600001805480602002602001604051908101604052809291908181526020018280548015610b2b57602002820191906000526020600020905b815481526020019060010190808311610b17575b50505050509050919050565b6000815180845260005b81811015610b5d57602081850181015186830182015201610b41565b506000602082860101526020601f19601f83011685010191505092915050565b6020815260006108796020830184610b37565b80356001600160a01b0381168114610ba757600080fd5b919050565b60008060408385031215610bbf57600080fd5b610bc883610b90565b946020939093013593505050565b600080600060608486031215610beb57600080fd5b610bf484610b90565b9250610c0260208501610b90565b929592945050506040919091013590565b600060208284031215610c2557600080fd5b61087982610b90565b600080600060408486031215610c4357600080fd5b833567ffffffffffffffff811115610c5a57600080fd5b8401601f81018613610c6b57600080fd5b803567ffffffffffffffff811115610c8257600080fd5b866020828401011115610c9457600080fd5b6020918201979096509401359392505050565b60008060408385031215610cba57600080fd5b82359150602083013560038110610cd057600080fd5b809150509250929050565b600060208284031215610ced57600080fd5b5035919050565b600081518084526020840193506020830160005b82811015610d2f5781516001600160a01b0316865260209586019590910190600101610d08565b5093949350505050565b60208152600082516101206020840152610d57610140840182610cf4565b90506020840151601f19848303016040850152610d748282610b37565b9150506040840151606084015260608401516080840152608084015160a084015260a084015160c084015260c084015160e084015260e0840151610dbd61010085018215159052565b50610100840151801515610120850152509392505050565b60008060408385031215610de857600080fd5b610df183610b90565b9150610dff60208401610b90565b90509250929050565b600181811c90821680610e1c57607f821691505b602082108103610e3c57634e487b7160e01b600052602260045260246000fd5b50919050565b634e487b7160e01b600052601160045260246000fd5b808201808211156102bc576102bc610e42565b634e487b7160e01b600052604160045260246000fd5b601f82111561074d57806000526020600020601f840160051c81016020851015610ea85750805b601f840160051c820191505b81811015610ec85760008155600101610eb4565b5050505050565b67ffffffffffffffff831115610ee757610ee7610e6b565b610efb83610ef58354610e08565b83610e81565b6000601f841160018114610f2f5760008515610f175750838201355b600019600387901b1c1916600186901b178355610ec8565b600083815260209020601f19861690835b82811015610f605786850135825560209485019460019092019101610f40565b5086821015610f7d5760001960f88860031b161c19848701351681555b505060018560011b0183555050505050565b818103818111156102bc576102bc610e42565b634e487b7160e01b600052603260045260246000fd5b634e487b7160e01b600052602160045260246000fdfea264697066735822122053fb5442ebc91f59afda4c1f0e618e579ab8ce6c33f7eee1c5e0454d944bcd7c64736f6c634300081a0033",
  "devdoc": {
    "errors": {
      "ERC20InsufficientAllowance(address,uint256,uint256)": [
        {
          "details": "Indicates a failure with the `spender`s `allowance`. Used in transfers.",
          "params": {
            "allowance": "Amount of tokens a `spender` is allowed to operate with.",
            "needed": "Minimum amount required to perform a transfer.",
            "spender": "Address that may be allowed to operate on tokens without being their owner."
          }
        }
      ],
      "ERC20InsufficientBalance(address,uint256,uint256)": [
        {
          "details": "Indicates an error related to the current `balance` of a `sender`. Used in transfers.",
          "params": {
            "balance": "Current balance for the interacting account.",
            "needed": "Minimum amount required to perform a transfer.",
            "sender": "Address whose tokens are being transferred."
          }
        }
      ],
      "ERC20InvalidApprover(address)": [
        {
          "details": "Indicates a failure with the `approver` of a token to be approved. Used in approvals.",
          "params": {
            "approver": "Address initiating an approval operation."
          }
        }
      ],
      "ERC20InvalidReceiver(address)": [
        {
          "details": "Indicates a failure with the token `receiver`. Used in transfers.",
          "params": {
            "receiver": "Address to which tokens are being transferred."
          }
        }
      ],
      "ERC20InvalidSender(address)": [
        {
          "details": "Indicates a failure with the token `sender`. Used in transfers.",
          "params": {
            "sender": "Address whose tokens are being transferred."
          }
        }
      ],
      "ERC20InvalidSpender(address)": [
        {
          "details": "Indicates a failure with the `spender` to be approved. Used in approvals.",
          "params": {
            "spender": "Address that may be allowed to operate on tokens without being their owner."
          }
        }
      ]
    },
    "events": {
      "Approval(address,address,uint256)": {
        "details": "Emitted when the allowance of a `spender` for an `owner` is set by a call to {approve}. `value` is the new allowance."
      },
      "Transfer(address,address,uint256)": {
        "details": "Emitted when `value` tokens are moved from one account (`from`) to another (`to`). Note that `value` may be zero."
      }
    },
    "kind": "dev",
    "methods": {
      "allowance(address,address)": {
        "details": "See {IERC20-allowance}."
      },
      "approve(address,uint256)": {
        "details": "See {IERC20-approve}. NOTE: If `value` is the maximum `uint256`, the allowance is not updated on `transferFrom`. This is semantically equivalent to an infinite approval. Requirements: - `spender` cannot be the zero address."
      },
      "balanceOf(address)": {
        "details": "See {IERC20-balanceOf}."
      },
      "decimals()": {
        "details": "Returns the number of decimals used to get its user representation. For example, if `decimals` equals `2`, a balance of `505` tokens should be displayed to a user as `5.05` (`505 / 10 ** 2`). Tokens usually opt for a value of 18, imitating the relationship between Ether and Wei. This is the default value returned by this function, unless it's overridden. NOTE: This information is only used for _display_ purposes: it in no way affects any of the arithmetic of the contract, including {IERC20-balanceOf} and {IERC20-transfer}."
      },
      "name()": {
        "details": "Returns the name of the token."
      },
      "symbol()": {
        "details": "Returns the symbol of the token, usually a shorter version of the name."
      },
      "totalSupply()": {
        "details": "See {IERC20-totalSupply}."
      },
      "transfer(address,uint256)": {
        "details": "See {IERC20-transfer}. Requirements: - `to` cannot be the zero address. - the caller must have a balance of at least `value`."
      },
      "transferFrom(address,address,uint256)": {
        "details": "See {IERC20-transferFrom}. Skips emitting an {Approval} event indicating an allowance update. This is not required by the ERC. See {xref-ERC20-_approve-address-address-uint256-bool-}[_approve]. NOTE: Does not update the allowance if the current allowance is the maximum `uint256`. Requirements: - `from` and `to` cannot be the zero address. - `from` must have a balance of at least `value`. - the caller must have allowance for ``from``'s tokens of at least `value`."
      }
    },
    "version": 1
  },
  "userdoc": {
    "kind": "user",
    "methods": {},
    "version": 1
  },
  "storageLayout": {
    "storage": [
      {
        "astId": 159,
        "contract": "contracts/ERC-20/WeightedVoting.sol:WeightedVoting",
        "label": "_balances",
        "offset": 0,
        "slot": "0",
        "type": "t_mapping(t_address,t_uint256)"
      },
      {
        "astId": 165,
        "contract": "contracts/ERC-20/WeightedVoting.sol:WeightedVoting",
        "label": "_allowances",
        "offset": 0,
        "slot": "1",
        "type": "t_mapping(t_address,t_mapping(t_address,t_uint256))"
      },
      {
        "astId": 167,
        "contract": "contracts/ERC-20/WeightedVoting.sol:WeightedVoting",
        "label": "_totalSupply",
        "offset": 0,
        "slot": "2",
        "type": "t_uint256"
      },
      {
        "astId": 169,
        "contract": "contracts/ERC-20/WeightedVoting.sol:WeightedVoting",
        "label": "_name",
        "offset": 0,
        "slot": "3",
        "type": "t_string_storage"
      },
      {
        "astId": 171,
        "contract": "contracts/ERC-20/WeightedVoting.sol:WeightedVoting",
        "label": "_symbol",
        "offset": 0,
        "slot": "4",
        "type": "t_string_storage"
      },
      {
        "astId": 1413,
        "contract": "contracts/ERC-20/WeightedVoting.sol:WeightedVoting",
        "label": "_maximumSupply",
        "offset": 0,
        "slot": "5",
        "type": "t_uint256"
      },
      {
        "astId": 1420,
        "contract": "contracts/ERC-20/WeightedVoting.sol:WeightedVoting",
        "label": "_claimed",
        "offset": 0,
        "slot": "6",
        "type": "t_mapping(t_address,t_bool)"
      },
      {
        "astId": 1464,
        "contract": "contracts/ERC-20/WeightedVoting.sol:WeightedVoting",
        "label": "_issues",
        "offset": 0,
        "slot": "7",
        "type": "t_array(t_struct(Issue)1440_storage)dyn_storage"
      }
    ],
    "types": {
      "t_address": {
        "encoding": "inplace",
        "label": "address",
        "numberOfBytes": "20"
      },
      "t_array(t_bytes32)dyn_storage": {
        "base": "t_bytes32",
        "encoding": "dynamic_array",
        "label": "bytes32[]",
        "numberOfBytes": "32"
      },
      "t_array(t_struct(Issue)1440_storage)dyn_storage": {
        "base": "t_struct(Issue)1440_storage",
        "encoding": "dynamic_array",
        "label": "struct WeightedVoting.Issue[]",
        "numberOfBytes": "32"
      },
      "t_bool": {
        "encoding": "inplace",
        "label": "bool",
        "numberOfBytes": "1"
      },
      "t_bytes32": {
        "encoding": "inplace",
        "label": "bytes32",
        "numberOfBytes": "32"
      },
      "t_mapping(t_address,t_bool)": {
        "encoding": "mapping",
        "key": "t_address",
        "label": "mapping(address => bool)",
        "numberOfBytes": "32",
        "value": "t_bool"
      },
      "t_mapping(t_address,t_mapping(t_address,t_uint256))": {
        "encoding": "mapping",
        "key": "t_address",
        "label": "mapping(address => mapping(address => uint256))",
        "numberOfBytes": "32",
        "value": "t_mapping(t_address,t_uint256)"
      },
      "t_mapping(t_address,t_uint256)": {
        "encoding": "mapping",
        "key": "t_address",
        "label": "mapping(address => uint256)",
        "numberOfBytes": "32",
        "value": "t_uint256"
      },
      "t_mapping(t_bytes32,t_uint256)": {
        "encoding": "mapping",
        "key": "t_bytes32",
        "label": "mapping(bytes32 => uint256)",
        "numberOfBytes": "32",
        "value": "t_uint256"
      },
      "t_string_storage": {
        "encoding": "bytes",
        "label": "string",
        "numberOfBytes": "32"
      },
      "t_struct(AddressSet)1111_storage": {
        "encoding": "inplace",
        "label": "struct EnumerableSet.AddressSet",
        "members": [
          {
            "astId": 1110,
            "contract": "contracts/ERC-20/WeightedVoting.sol:WeightedVoting",
            "label": "_inner",
            "offset": 0,
            "slot": "0",
            "type": "t_struct(Set)796_storage"
          }
        ],
        "numberOfBytes": "64"
      },
      "t_struct(Issue)1440_storage": {
        "encoding": "inplace",
        "label": "struct WeightedVoting.Issue",
        "members": [
          {
            "astId": 1423,
            "contract": "contracts/ERC-20/WeightedVoting.sol:WeightedVoting",
            "label": "voters",
            "offset": 0,
            "slot": "0",
            "type": "t_struct(AddressSet)1111_storage"
          },
          {
            "astId": 1425,
            "contract": "contracts/ERC-20/WeightedVoting.sol:WeightedVoting",
            "label": "issueDesc",
            "offset": 0,
            "slot": "2",
            "type": "t_string_storage"
          },
          {
            "astId": 1427,
            "contract": "contracts/ERC-20/WeightedVoting.sol:WeightedVoting",
            "label": "votesFor",
            "offset": 0,
            "slot": "3",
            "type": "t_uint256"
          },
          {
            "astId": 1429,
            "contract": "contracts/ERC-20/WeightedVoting.sol:WeightedVoting",
            "label": "votesAgainst",
            "offset": 0,
            "slot": "4",
            "type": "t_uint256"
          },
          {
            "astId": 1431,
            "contract": "contracts/ERC-20/WeightedVoting.sol:WeightedVoting",
            "label": "votesAbstain",
            "offset": 0,
            "slot": "5",
            "type": "t_uint256"
          },
          {
            "astId": 1433,
            "contract": "contracts/ERC-20/WeightedVoting.sol:WeightedVoting",
            "label": "totalVotes",
            "offset": 0,
            "slot": "6",
            "type": "t_uint256"
          },
          {
            "astId": 1435,
            "contract": "contracts/ERC-20/WeightedVoting.sol:WeightedVoting",
            "label": "quorum",
            "offset": 0,
            "slot": "7",
            "type": "t_uint256"
          },
          {
            "astId": 1437,
            "contract": "contracts/ERC-20/WeightedVoting.sol:WeightedVoting",
            "label": "passed",
            "offset": 0,
            "slot": "8",
            "type": "t_bool"
          },
          {
            "astId": 1439,
            "contract": "contracts/ERC-20/WeightedVoting.sol:WeightedVoting",
            "label": "closed",
            "offset": 1,
            "slot": "8",
            "type": "t_bool"
          }
        ],
        "numberOfBytes": "288"
      },
      "t_struct(Set)796_storage": {
        "encoding": "inplace",
        "label": "struct EnumerableSet.Set",
        "members": [
          {
            "astId": 791,
            "contract": "contracts/ERC-20/WeightedVoting.sol:WeightedVoting",
            "label": "_values",
            "offset": 0,
            "slot": "0",
            "type": "t_array(t_bytes32)dyn_storage"
          },
          {
            "astId": 795,
            "contract": "contracts/ERC-20/WeightedVoting.sol:WeightedVoting",
            "label": "_positions",
            "offset": 0,
            "slot": "1",
            "type": "t_mapping(t_bytes32,t_uint256)"
          }
        ],
        "numberOfBytes": "64"
      },
      "t_uint256": {
        "encoding": "inplace",
        "label": "uint256",
        "numberOfBytes": "32"
      }
    }
  }
}